{
  "_format": "hh-sol-artifact-1",
  "contractName": "votingContract",
  "sourceName": "contracts/votingContract.sol",
  "abi": [
    {
      "inputs": [],
      "stateMutability": "nonpayable",
      "type": "constructor"
    },
    {
      "anonymous": false,
      "inputs": [
        {
          "indexed": true,
          "internalType": "uint256",
          "name": "candidateId",
          "type": "uint256"
        },
        {
          "indexed": false,
          "internalType": "string",
          "name": "name",
          "type": "string"
        },
        {
          "indexed": false,
          "internalType": "string",
          "name": "image",
          "type": "string"
        },
        {
          "indexed": false,
          "internalType": "string",
          "name": "age",
          "type": "string"
        },
        {
          "indexed": false,
          "internalType": "uint256",
          "name": "voteCount",
          "type": "uint256"
        },
        {
          "indexed": false,
          "internalType": "address",
          "name": "_address",
          "type": "address"
        },
        {
          "indexed": false,
          "internalType": "string",
          "name": "ipfs",
          "type": "string"
        }
      ],
      "name": "CandidateCreate",
      "type": "event"
    },
    {
      "anonymous": false,
      "inputs": [
        {
          "indexed": false,
          "internalType": "uint256",
          "name": "voter_voterId",
          "type": "uint256"
        },
        {
          "indexed": false,
          "internalType": "string",
          "name": "voter_name",
          "type": "string"
        },
        {
          "indexed": false,
          "internalType": "string",
          "name": "voter_image",
          "type": "string"
        },
        {
          "indexed": false,
          "internalType": "address",
          "name": "voter_address",
          "type": "address"
        },
        {
          "indexed": false,
          "internalType": "uint256",
          "name": "voter_allowed",
          "type": "uint256"
        },
        {
          "indexed": false,
          "internalType": "bool",
          "name": "voter_voted",
          "type": "bool"
        },
        {
          "indexed": false,
          "internalType": "uint256",
          "name": "voter_vote",
          "type": "uint256"
        },
        {
          "indexed": false,
          "internalType": "string",
          "name": "voter_ipfs",
          "type": "string"
        }
      ],
      "name": "VoterCreated",
      "type": "event"
    },
    {
      "inputs": [],
      "name": "_candidateID",
      "outputs": [
        {
          "internalType": "uint256",
          "name": "_value",
          "type": "uint256"
        }
      ],
      "stateMutability": "view",
      "type": "function"
    },
    {
      "inputs": [
        {
          "internalType": "address",
          "name": "",
          "type": "address"
        }
      ],
      "name": "_candidates",
      "outputs": [
        {
          "internalType": "uint256",
          "name": "candidateId",
          "type": "uint256"
        },
        {
          "internalType": "string",
          "name": "name",
          "type": "string"
        },
        {
          "internalType": "string",
          "name": "image",
          "type": "string"
        },
        {
          "internalType": "string",
          "name": "age",
          "type": "string"
        },
        {
          "internalType": "uint256",
          "name": "voteCount",
          "type": "uint256"
        },
        {
          "internalType": "address",
          "name": "_address",
          "type": "address"
        },
        {
          "internalType": "string",
          "name": "ipfs",
          "type": "string"
        }
      ],
      "stateMutability": "view",
      "type": "function"
    },
    {
      "inputs": [],
      "name": "_voterID",
      "outputs": [
        {
          "internalType": "uint256",
          "name": "_value",
          "type": "uint256"
        }
      ],
      "stateMutability": "view",
      "type": "function"
    },
    {
      "inputs": [
        {
          "internalType": "uint256",
          "name": "",
          "type": "uint256"
        }
      ],
      "name": "candidateAddress",
      "outputs": [
        {
          "internalType": "address",
          "name": "",
          "type": "address"
        }
      ],
      "stateMutability": "view",
      "type": "function"
    },
    {
      "inputs": [],
      "name": "getCandidate",
      "outputs": [
        {
          "internalType": "address[]",
          "name": "",
          "type": "address[]"
        }
      ],
      "stateMutability": "view",
      "type": "function"
    },
    {
      "inputs": [],
      "name": "getCandidateLength",
      "outputs": [
        {
          "internalType": "uint256",
          "name": "",
          "type": "uint256"
        }
      ],
      "stateMutability": "view",
      "type": "function"
    },
    {
      "inputs": [
        {
          "internalType": "address",
          "name": "_address",
          "type": "address"
        }
      ],
      "name": "getCandidatedata",
      "outputs": [
        {
          "internalType": "string",
          "name": "",
          "type": "string"
        },
        {
          "internalType": "string",
          "name": "",
          "type": "string"
        },
        {
          "internalType": "uint256",
          "name": "",
          "type": "uint256"
        },
        {
          "internalType": "string",
          "name": "",
          "type": "string"
        },
        {
          "internalType": "uint256",
          "name": "",
          "type": "uint256"
        },
        {
          "internalType": "string",
          "name": "",
          "type": "string"
        },
        {
          "internalType": "address",
          "name": "",
          "type": "address"
        }
      ],
      "stateMutability": "view",
      "type": "function"
    },
    {
      "inputs": [],
      "name": "getVotedVoterList",
      "outputs": [
        {
          "internalType": "address[]",
          "name": "",
          "type": "address[]"
        }
      ],
      "stateMutability": "view",
      "type": "function"
    },
    {
      "inputs": [],
      "name": "getVoterList",
      "outputs": [
        {
          "internalType": "address[]",
          "name": "",
          "type": "address[]"
        }
      ],
      "stateMutability": "view",
      "type": "function"
    },
    {
      "inputs": [
        {
          "internalType": "address",
          "name": "_address",
          "type": "address"
        }
      ],
      "name": "getVoterdata",
      "outputs": [
        {
          "internalType": "uint256",
          "name": "",
          "type": "uint256"
        },
        {
          "internalType": "string",
          "name": "",
          "type": "string"
        },
        {
          "internalType": "string",
          "name": "",
          "type": "string"
        },
        {
          "internalType": "address",
          "name": "",
          "type": "address"
        },
        {
          "internalType": "string",
          "name": "",
          "type": "string"
        },
        {
          "internalType": "uint256",
          "name": "",
          "type": "uint256"
        },
        {
          "internalType": "bool",
          "name": "",
          "type": "bool"
        }
      ],
      "stateMutability": "view",
      "type": "function"
    },
    {
      "inputs": [],
      "name": "getvoterLength",
      "outputs": [
        {
          "internalType": "uint256",
          "name": "",
          "type": "uint256"
        }
      ],
      "stateMutability": "view",
      "type": "function"
    },
    {
      "inputs": [
        {
          "internalType": "address",
          "name": "_address",
          "type": "address"
        },
        {
          "internalType": "string",
          "name": "_age",
          "type": "string"
        },
        {
          "internalType": "string",
          "name": "_name",
          "type": "string"
        },
        {
          "internalType": "string",
          "name": "_image",
          "type": "string"
        },
        {
          "internalType": "string",
          "name": "_ipfs",
          "type": "string"
        }
      ],
      "name": "setCandidate",
      "outputs": [],
      "stateMutability": "nonpayable",
      "type": "function"
    },
    {
      "inputs": [
        {
          "internalType": "address",
          "name": "_candidateAddress",
          "type": "address"
        },
        {
          "internalType": "uint256",
          "name": "_candidateVoteId",
          "type": "uint256"
        }
      ],
      "name": "vote",
      "outputs": [],
      "stateMutability": "nonpayable",
      "type": "function"
    },
    {
      "inputs": [
        {
          "internalType": "uint256",
          "name": "",
          "type": "uint256"
        }
      ],
      "name": "votedVoters",
      "outputs": [
        {
          "internalType": "address",
          "name": "",
          "type": "address"
        }
      ],
      "stateMutability": "view",
      "type": "function"
    },
    {
      "inputs": [
        {
          "internalType": "address",
          "name": "_address",
          "type": "address"
        },
        {
          "internalType": "string",
          "name": "_name",
          "type": "string"
        },
        {
          "internalType": "string",
          "name": "_image",
          "type": "string"
        },
        {
          "internalType": "string",
          "name": "_ipfs",
          "type": "string"
        }
      ],
      "name": "voterRight",
      "outputs": [],
      "stateMutability": "nonpayable",
      "type": "function"
    },
    {
      "inputs": [
        {
          "internalType": "address",
          "name": "",
          "type": "address"
        }
      ],
      "name": "voters",
      "outputs": [
        {
          "internalType": "uint256",
          "name": "voter_voterId",
          "type": "uint256"
        },
        {
          "internalType": "string",
          "name": "voter_name",
          "type": "string"
        },
        {
          "internalType": "string",
          "name": "voter_image",
          "type": "string"
        },
        {
          "internalType": "address",
          "name": "voter_address",
          "type": "address"
        },
        {
          "internalType": "uint256",
          "name": "voter_allowed",
          "type": "uint256"
        },
        {
          "internalType": "bool",
          "name": "voter_voted",
          "type": "bool"
        },
        {
          "internalType": "uint256",
          "name": "voter_vote",
          "type": "uint256"
        },
        {
          "internalType": "string",
          "name": "voter_ipfs",
          "type": "string"
        }
      ],
      "stateMutability": "view",
      "type": "function"
    },
    {
      "inputs": [
        {
          "internalType": "uint256",
          "name": "",
          "type": "uint256"
        }
      ],
      "name": "votersAddress",
      "outputs": [
        {
          "internalType": "address",
          "name": "",
          "type": "address"
        }
      ],
      "stateMutability": "view",
      "type": "function"
    },
    {
      "inputs": [],
      "name": "votingOrganizer",
      "outputs": [
        {
          "internalType": "address",
          "name": "",
          "type": "address"
        }
      ],
      "stateMutability": "view",
      "type": "function"
    }
  ],
  "bytecode": "0x608060405234801561001057600080fd5b5033600260006101000a81548173ffffffffffffffffffffffffffffffffffffffff021916908373ffffffffffffffffffffffffffffffffffffffff160217905550612802806100616000396000f3fe608060405234801561001057600080fd5b50600436106101165760003560e01c80637831ffb3116100a2578063b404031311610071578063b404031314610304578063b63c82ca14610322578063c5036fd414610358578063c91ec7121461038e578063f7522a83146103aa57610116565b80637831ffb3146102615780638e94568514610291578063a3ec138d146102af578063b28d92ae146102e657610116565b80635cc48aa7116100e95780635cc48aa7146101b55780635f74bbde146101d357806364f1832e146101ef57806370218b851461020d578063780519951461022b57610116565b80630361419e1461011b5780633a88251a1461013757806343242daa14610167578063568786b514610197575b600080fd5b61013560048036038101906101309190611b7f565b6103c8565b005b610151600480360381019061014c9190611c70565b610641565b60405161015e9190611cac565b60405180910390f35b610181600480360381019061017c9190611c70565b610680565b60405161018e9190611cac565b60405180910390f35b61019f6106bf565b6040516101ac9190611cd6565b60405180910390f35b6101bd6106cc565b6040516101ca9190611cac565b60405180910390f35b6101ed60048036038101906101e89190611cf1565b6106f2565b005b6101f76108b9565b6040516102049190611cd6565b60405180910390f35b6102156108c5565b6040516102229190611def565b60405180910390f35b61024560048036038101906102409190611e11565b610953565b6040516102589796959493929190611ebd565b60405180910390f35b61027b60048036038101906102769190611c70565b610bd5565b6040516102889190611cac565b60405180910390f35b610299610c14565b6040516102a69190611def565b60405180910390f35b6102c960048036038101906102c49190611e11565b610ca2565b6040516102dd989796959493929190611f63565b60405180910390f35b6102ee610eaf565b6040516102fb9190611def565b60405180910390f35b61030c610f3d565b6040516103199190611cd6565b60405180910390f35b61033c60048036038101906103379190611e11565b610f49565b60405161034f9796959493929190611ff6565b60405180910390f35b610372600480360381019061036d9190611e11565b611390565b6040516103859796959493929190612081565b60405180910390f35b6103a860048036038101906103a39190612105565b611758565b005b6103b261198f565b6040516103bf9190611cd6565b60405180910390f35b3373ffffffffffffffffffffffffffffffffffffffff16600260009054906101000a900473ffffffffffffffffffffffffffffffffffffffff1673ffffffffffffffffffffffffffffffffffffffff1614610458576040517f08c379a000000000000000000000000000000000000000000000000000000000815260040161044f9061223c565b60405180910390fd5b610462600061199c565b600061046e60006119b9565b90506000600860008773ffffffffffffffffffffffffffffffffffffffff1673ffffffffffffffffffffffffffffffffffffffff168152602001908152602001600020905060008160040154146104c457600080fd5b60018160040181905550848160010190816104df9190612468565b50838160020190816104f19190612468565b50858160030160006101000a81548173ffffffffffffffffffffffffffffffffffffffff021916908373ffffffffffffffffffffffffffffffffffffffff16021790555081816000018190555061271081600601819055508281600701908161055a9190612468565b5060008160050160006101000a81548160ff0219169083151502179055506007869080600181540180825580915050600190039060005260206000200160009091909190916101000a81548173ffffffffffffffffffffffffffffffffffffffff021916908373ffffffffffffffffffffffffffffffffffffffff1602179055507ff5f39971dd62d9929e3a9feaa6bb77fe7c7da0001babff8a65a7e51ad0201c198286868985600401548660050160009054906101000a900460ff1687600601548a604051610631989796959493929190611f63565b60405180910390a1505050505050565b6004818154811061065157600080fd5b906000526020600020016000915054906101000a900473ffffffffffffffffffffffffffffffffffffffff1681565b6007818154811061069057600080fd5b906000526020600020016000915054906101000a900473ffffffffffffffffffffffffffffffffffffffff1681565b6000600780549050905090565b600260009054906101000a900473ffffffffffffffffffffffffffffffffffffffff1681565b6000600860003373ffffffffffffffffffffffffffffffffffffffff1673ffffffffffffffffffffffffffffffffffffffff16815260200190815260200160002090508060050160009054906101000a900460ff1615610787576040517f08c379a000000000000000000000000000000000000000000000000000000000815260040161077e90612586565b60405180910390fd5b60008160040154036107ce576040517f08c379a00000000000000000000000000000000000000000000000000000000081526004016107c5906125f2565b60405180910390fd5b60018160050160006101000a81548160ff0219169083151502179055508181600601819055506006339080600181540180825580915050600190039060005260206000200160009091909190916101000a81548173ffffffffffffffffffffffffffffffffffffffff021916908373ffffffffffffffffffffffffffffffffffffffff1602179055508060040154600560008573ffffffffffffffffffffffffffffffffffffffff1673ffffffffffffffffffffffffffffffffffffffff16815260200190815260200160002060040160008282546108ad9190612641565b92505081905550505050565b60018060000154905081565b6060600480548060200260200160405190810160405280929190818152602001828054801561094957602002820191906000526020600020905b8160009054906101000a900473ffffffffffffffffffffffffffffffffffffffff1673ffffffffffffffffffffffffffffffffffffffff16815260200190600101908083116108ff575b5050505050905090565b600560205280600052604060002060009150905080600001549080600101805461097c9061228b565b80601f01602080910402602001604051908101604052809291908181526020018280546109a89061228b565b80156109f55780601f106109ca576101008083540402835291602001916109f5565b820191906000526020600020905b8154815290600101906020018083116109d857829003601f168201915b505050505090806002018054610a0a9061228b565b80601f0160208091040260200160405190810160405280929190818152602001828054610a369061228b565b8015610a835780601f10610a5857610100808354040283529160200191610a83565b820191906000526020600020905b815481529060010190602001808311610a6657829003601f168201915b505050505090806003018054610a989061228b565b80601f0160208091040260200160405190810160405280929190818152602001828054610ac49061228b565b8015610b115780601f10610ae657610100808354040283529160200191610b11565b820191906000526020600020905b815481529060010190602001808311610af457829003601f168201915b5050505050908060040154908060050160009054906101000a900473ffffffffffffffffffffffffffffffffffffffff1690806006018054610b529061228b565b80601f0160208091040260200160405190810160405280929190818152602001828054610b7e9061228b565b8015610bcb5780601f10610ba057610100808354040283529160200191610bcb565b820191906000526020600020905b815481529060010190602001808311610bae57829003601f168201915b5050505050905087565b60068181548110610be557600080fd5b906000526020600020016000915054906101000a900473ffffffffffffffffffffffffffffffffffffffff1681565b60606006805480602002602001604051908101604052809291908181526020018280548015610c9857602002820191906000526020600020905b8160009054906101000a900473ffffffffffffffffffffffffffffffffffffffff1673ffffffffffffffffffffffffffffffffffffffff1681526020019060010190808311610c4e575b5050505050905090565b6008602052806000526040600020600091509050806000015490806001018054610ccb9061228b565b80601f0160208091040260200160405190810160405280929190818152602001828054610cf79061228b565b8015610d445780601f10610d1957610100808354040283529160200191610d44565b820191906000526020600020905b815481529060010190602001808311610d2757829003601f168201915b505050505090806002018054610d599061228b565b80601f0160208091040260200160405190810160405280929190818152602001828054610d859061228b565b8015610dd25780601f10610da757610100808354040283529160200191610dd2565b820191906000526020600020905b815481529060010190602001808311610db557829003601f168201915b5050505050908060030160009054906101000a900473ffffffffffffffffffffffffffffffffffffffff16908060040154908060050160009054906101000a900460ff1690806006015490806007018054610e2c9061228b565b80601f0160208091040260200160405190810160405280929190818152602001828054610e589061228b565b8015610ea55780601f10610e7a57610100808354040283529160200191610ea5565b820191906000526020600020905b815481529060010190602001808311610e8857829003601f168201915b5050505050905088565b60606007805480602002602001604051908101604052809291908181526020018280548015610f3357602002820191906000526020600020905b8160009054906101000a900473ffffffffffffffffffffffffffffffffffffffff1673ffffffffffffffffffffffffffffffffffffffff1681526020019060010190808311610ee9575b5050505050905090565b60008060000154905081565b60608060006060600060606000600560008973ffffffffffffffffffffffffffffffffffffffff1673ffffffffffffffffffffffffffffffffffffffff168152602001908152602001600020600301600560008a73ffffffffffffffffffffffffffffffffffffffff1673ffffffffffffffffffffffffffffffffffffffff168152602001908152602001600020600101600560008b73ffffffffffffffffffffffffffffffffffffffff1673ffffffffffffffffffffffffffffffffffffffff16815260200190815260200160002060000154600560008c73ffffffffffffffffffffffffffffffffffffffff1673ffffffffffffffffffffffffffffffffffffffff168152602001908152602001600020600201600560008d73ffffffffffffffffffffffffffffffffffffffff1673ffffffffffffffffffffffffffffffffffffffff16815260200190815260200160002060040154600560008e73ffffffffffffffffffffffffffffffffffffffff1673ffffffffffffffffffffffffffffffffffffffff168152602001908152602001600020600601600560008f73ffffffffffffffffffffffffffffffffffffffff1673ffffffffffffffffffffffffffffffffffffffff16815260200190815260200160002060050160009054906101000a900473ffffffffffffffffffffffffffffffffffffffff168680546111539061228b565b80601f016020809104026020016040519081016040528092919081815260200182805461117f9061228b565b80156111cc5780601f106111a1576101008083540402835291602001916111cc565b820191906000526020600020905b8154815290600101906020018083116111af57829003601f168201915b505050505096508580546111df9061228b565b80601f016020809104026020016040519081016040528092919081815260200182805461120b9061228b565b80156112585780601f1061122d57610100808354040283529160200191611258565b820191906000526020600020905b81548152906001019060200180831161123b57829003601f168201915b5050505050955083805461126b9061228b565b80601f01602080910402602001604051908101604052809291908181526020018280546112979061228b565b80156112e45780601f106112b9576101008083540402835291602001916112e4565b820191906000526020600020905b8154815290600101906020018083116112c757829003601f168201915b505050505093508180546112f79061228b565b80601f01602080910402602001604051908101604052809291908181526020018280546113239061228b565b80156113705780601f1061134557610100808354040283529160200191611370565b820191906000526020600020905b81548152906001019060200180831161135357829003601f168201915b505050505091509650965096509650965096509650919395979092949650565b600060608060006060600080600860008973ffffffffffffffffffffffffffffffffffffffff1673ffffffffffffffffffffffffffffffffffffffff16815260200190815260200160002060000154600860008a73ffffffffffffffffffffffffffffffffffffffff1673ffffffffffffffffffffffffffffffffffffffff168152602001908152602001600020600101600860008b73ffffffffffffffffffffffffffffffffffffffff1673ffffffffffffffffffffffffffffffffffffffff168152602001908152602001600020600201600860008c73ffffffffffffffffffffffffffffffffffffffff1673ffffffffffffffffffffffffffffffffffffffff16815260200190815260200160002060030160009054906101000a900473ffffffffffffffffffffffffffffffffffffffff16600860008d73ffffffffffffffffffffffffffffffffffffffff1673ffffffffffffffffffffffffffffffffffffffff168152602001908152602001600020600701600860008e73ffffffffffffffffffffffffffffffffffffffff1673ffffffffffffffffffffffffffffffffffffffff16815260200190815260200160002060040154600860008f73ffffffffffffffffffffffffffffffffffffffff1673ffffffffffffffffffffffffffffffffffffffff16815260200190815260200160002060050160009054906101000a900460ff168580546115a79061228b565b80601f01602080910402602001604051908101604052809291908181526020018280546115d39061228b565b80156116205780601f106115f557610100808354040283529160200191611620565b820191906000526020600020905b81548152906001019060200180831161160357829003601f168201915b505050505095508480546116339061228b565b80601f016020809104026020016040519081016040528092919081815260200182805461165f9061228b565b80156116ac5780601f10611681576101008083540402835291602001916116ac565b820191906000526020600020905b81548152906001019060200180831161168f57829003601f168201915b505050505094508280546116bf9061228b565b80601f01602080910402602001604051908101604052809291908181526020018280546116eb9061228b565b80156117385780601f1061170d57610100808354040283529160200191611738565b820191906000526020600020905b81548152906001019060200180831161171b57829003601f168201915b505050505092509650965096509650965096509650919395979092949650565b3373ffffffffffffffffffffffffffffffffffffffff16600260009054906101000a900473ffffffffffffffffffffffffffffffffffffffff1673ffffffffffffffffffffffffffffffffffffffff16146117e8576040517f08c379a00000000000000000000000000000000000000000000000000000000081526004016117df906126e7565b60405180910390fd5b6117f2600161199c565b60006117fe60016119b9565b90506000600560008873ffffffffffffffffffffffffffffffffffffffff1673ffffffffffffffffffffffffffffffffffffffff1681526020019081526020016000209050858160030190816118549190612468565b50848160010190816118669190612468565b50818160000181905550838160020190816118819190612468565b5060008160040181905550868160050160006101000a81548173ffffffffffffffffffffffffffffffffffffffff021916908373ffffffffffffffffffffffffffffffffffffffff160217905550828160060190816118e09190612468565b506004879080600181540180825580915050600190039060005260206000200160009091909190916101000a81548173ffffffffffffffffffffffffffffffffffffffff021916908373ffffffffffffffffffffffffffffffffffffffff160217905550817fd297f12b256bb8485a6013fb5e302017018123e99a0ebb20756c09e1707b4b90868689868c8960405161197e96959493929190612707565b60405180910390a250505050505050565b6000600480549050905090565b8060000160008154809291906119b190612784565b919050555050565b600081600001549050919050565b6000604051905090565b600080fd5b600080fd5b600073ffffffffffffffffffffffffffffffffffffffff82169050919050565b6000611a06826119db565b9050919050565b611a16816119fb565b8114611a2157600080fd5b50565b600081359050611a3381611a0d565b92915050565b600080fd5b600080fd5b6000601f19601f8301169050919050565b7f4e487b7100000000000000000000000000000000000000000000000000000000600052604160045260246000fd5b611a8c82611a43565b810181811067ffffffffffffffff82111715611aab57611aaa611a54565b5b80604052505050565b6000611abe6119c7565b9050611aca8282611a83565b919050565b600067ffffffffffffffff821115611aea57611ae9611a54565b5b611af382611a43565b9050602081019050919050565b82818337600083830152505050565b6000611b22611b1d84611acf565b611ab4565b905082815260208101848484011115611b3e57611b3d611a3e565b5b611b49848285611b00565b509392505050565b600082601f830112611b6657611b65611a39565b5b8135611b76848260208601611b0f565b91505092915050565b60008060008060808587031215611b9957611b986119d1565b5b6000611ba787828801611a24565b945050602085013567ffffffffffffffff811115611bc857611bc76119d6565b5b611bd487828801611b51565b935050604085013567ffffffffffffffff811115611bf557611bf46119d6565b5b611c0187828801611b51565b925050606085013567ffffffffffffffff811115611c2257611c216119d6565b5b611c2e87828801611b51565b91505092959194509250565b6000819050919050565b611c4d81611c3a565b8114611c5857600080fd5b50565b600081359050611c6a81611c44565b92915050565b600060208284031215611c8657611c856119d1565b5b6000611c9484828501611c5b565b91505092915050565b611ca6816119fb565b82525050565b6000602082019050611cc16000830184611c9d565b92915050565b611cd081611c3a565b82525050565b6000602082019050611ceb6000830184611cc7565b92915050565b60008060408385031215611d0857611d076119d1565b5b6000611d1685828601611a24565b9250506020611d2785828601611c5b565b9150509250929050565b600081519050919050565b600082825260208201905092915050565b6000819050602082019050919050565b611d66816119fb565b82525050565b6000611d788383611d5d565b60208301905092915050565b6000602082019050919050565b6000611d9c82611d31565b611da68185611d3c565b9350611db183611d4d565b8060005b83811015611de2578151611dc98882611d6c565b9750611dd483611d84565b925050600181019050611db5565b5085935050505092915050565b60006020820190508181036000830152611e098184611d91565b905092915050565b600060208284031215611e2757611e266119d1565b5b6000611e3584828501611a24565b91505092915050565b600081519050919050565b600082825260208201905092915050565b60005b83811015611e78578082015181840152602081019050611e5d565b60008484015250505050565b6000611e8f82611e3e565b611e998185611e49565b9350611ea9818560208601611e5a565b611eb281611a43565b840191505092915050565b600060e082019050611ed2600083018a611cc7565b8181036020830152611ee48189611e84565b90508181036040830152611ef88188611e84565b90508181036060830152611f0c8187611e84565b9050611f1b6080830186611cc7565b611f2860a0830185611c9d565b81810360c0830152611f3a8184611e84565b905098975050505050505050565b60008115159050919050565b611f5d81611f48565b82525050565b600061010082019050611f79600083018b611cc7565b8181036020830152611f8b818a611e84565b90508181036040830152611f9f8189611e84565b9050611fae6060830188611c9d565b611fbb6080830187611cc7565b611fc860a0830186611f54565b611fd560c0830185611cc7565b81810360e0830152611fe78184611e84565b90509998505050505050505050565b600060e0820190508181036000830152612010818a611e84565b905081810360208301526120248189611e84565b90506120336040830188611cc7565b81810360608301526120458187611e84565b90506120546080830186611cc7565b81810360a08301526120668185611e84565b905061207560c0830184611c9d565b98975050505050505050565b600060e082019050612096600083018a611cc7565b81810360208301526120a88189611e84565b905081810360408301526120bc8188611e84565b90506120cb6060830187611c9d565b81810360808301526120dd8186611e84565b90506120ec60a0830185611cc7565b6120f960c0830184611f54565b98975050505050505050565b600080600080600060a08688031215612121576121206119d1565b5b600061212f88828901611a24565b955050602086013567ffffffffffffffff8111156121505761214f6119d6565b5b61215c88828901611b51565b945050604086013567ffffffffffffffff81111561217d5761217c6119d6565b5b61218988828901611b51565b935050606086013567ffffffffffffffff8111156121aa576121a96119d6565b5b6121b688828901611b51565b925050608086013567ffffffffffffffff8111156121d7576121d66119d6565b5b6121e388828901611b51565b9150509295509295909350565b7f6f6e6c79206f7267616e697a65722063616e2063726561746520766f74657273600082015250565b6000612226602083611e49565b9150612231826121f0565b602082019050919050565b6000602082019050818103600083015261225581612219565b9050919050565b7f4e487b7100000000000000000000000000000000000000000000000000000000600052602260045260246000fd5b600060028204905060018216806122a357607f821691505b6020821081036122b6576122b561225c565b5b50919050565b60008190508160005260206000209050919050565b60006020601f8301049050919050565b600082821b905092915050565b60006008830261231e7fffffffffffffffffffffffffffffffffffffffffffffffffffffffffffffffff826122e1565b61232886836122e1565b95508019841693508086168417925050509392505050565b6000819050919050565b600061236561236061235b84611c3a565b612340565b611c3a565b9050919050565b6000819050919050565b61237f8361234a565b61239361238b8261236c565b8484546122ee565b825550505050565b600090565b6123a861239b565b6123b3818484612376565b505050565b5b818110156123d7576123cc6000826123a0565b6001810190506123b9565b5050565b601f82111561241c576123ed816122bc565b6123f6846122d1565b81016020851015612405578190505b612419612411856122d1565b8301826123b8565b50505b505050565b600082821c905092915050565b600061243f60001984600802612421565b1980831691505092915050565b6000612458838361242e565b9150826002028217905092915050565b61247182611e3e565b67ffffffffffffffff81111561248a57612489611a54565b5b612494825461228b565b61249f8282856123db565b600060209050601f8311600181146124d257600084156124c0578287015190505b6124ca858261244c565b865550612532565b601f1984166124e0866122bc565b60005b82811015612508578489015182556001820191506020850194506020810190506124e3565b868310156125255784890151612521601f89168261242e565b8355505b6001600288020188555050505b505050505050565b7f596f75206861766520616c726561647920766f74656400000000000000000000600082015250565b6000612570601683611e49565b915061257b8261253a565b602082019050919050565b6000602082019050818103600083015261259f81612563565b9050919050565b7f596f7520617265206e6f7420616c6c6f77656420746f20766f74650000000000600082015250565b60006125dc601b83611e49565b91506125e7826125a6565b602082019050919050565b6000602082019050818103600083015261260b816125cf565b9050919050565b7f4e487b7100000000000000000000000000000000000000000000000000000000600052601160045260246000fd5b600061264c82611c3a565b915061265783611c3a565b925082820190508082111561266f5761266e612612565b5b92915050565b7f4f6e6c79206f7267616e697a65722063616e207365742063616e64696461746560008201527f7300000000000000000000000000000000000000000000000000000000000000602082015250565b60006126d1602183611e49565b91506126dc82612675565b604082019050919050565b60006020820190508181036000830152612700816126c4565b9050919050565b600060c08201905081810360008301526127218189611e84565b905081810360208301526127358188611e84565b905081810360408301526127498187611e84565b90506127586060830186611cc7565b6127656080830185611c9d565b81810360a08301526127778184611e84565b9050979650505050505050565b600061278f82611c3a565b91507fffffffffffffffffffffffffffffffffffffffffffffffffffffffffffffffff82036127c1576127c0612612565b5b60018201905091905056fea2646970667358221220d989a3ebbe17a126f69ea5212908ed1941dc9d4339023f6315fb97a526b3685d64736f6c63430008130033",
  "linkReferences": {},
  "deployedLinkReferences": {}
}